:100000000C94D8000C9400010C9400010C94000195
:100010000C9400010C9400010C9400010C9400015C
:100020000C9400010C9400010C9400010C9400014C
:100030000C9400010C9400010C9400010C9400013C
:100040000C9426060C9400010C94F4050C94CE0537
:100050000C9400010C9400010C9400010C9400011C
:100060000C9400010C940001005EBCE2613FDD8352
:10007000C29C7E20A3FD1F419DC3217FFCA2401E88
:100080005F01E3BD3E6082DC237D9FC1421CFEA078
:10009000E1BF5D0380DE3C62BEE0025CDF81633D68
:1000A0007C22C09E1D43A1FF4618FAA427799BC558
:1000B00084DA3866E5BB5907DB856739BAE4065848
:1000C0001947A5FB7826C49A653BD987045AB8E638
:1000D000A7F91B45C6987A24F8A6441A99C7257B28
:1000E0003A6486D85B05E7B98CD2306EEDB3510F18
:1000F0004E10F2AC2F7193CD114FADF3702ECC9208
:10010000D38D6F31B2EC0E50AFF1134DCE90722CF7
:100110006D33D18F0C52B0EE326C8ED0530DEFB1E7
:10012000F0AE4C1291CF2D73CA947628ABF51749D7
:100130000856B4EA6937D58B5709EBB536688AD4C7
:1001400095CB2977F4AA4816E9B7550B88D6346AB7
:100150002B7597C94A14F6A8742AC896154BA9F7A7
:10016000B6E80A54D7896B35000000002500280046
:100170002B0000000000240027002A0000000000DF
:1001800023002600290004040404040404040202D9
:100190000202020203030303030301020408102006
:1001A000408001020408102001020408102070069B
:1001B00011241FBECFEFD8E0DEBFCDBF11E0A0E01D
:1001C000B1E0E6E8FAE102C005900D92AE32B10767
:1001D000D9F723E0AEE2B1E001C01D92A73FB2071C
:1001E000E1F710E0C8EDD0E004C02197FE010E94C5
:1001F000630AC73DD107C9F70E94A9070C94410DB6
:100200000C9400000895AF92BF92CF92DF92EF92CC
:10021000FF920F931F93CF93DF936C017B018B01B0
:10022000040F151FEB015E01AE18BF08C017D10700
:1002300059F06991D601ED91FC910190F081E02D8A
:10024000C6010995892B79F7C501DF91CF911F91DF
:100250000F91FF90EF90DF90CF90BF90AF900895F7
:10026000FC01538D448D252F30E0842F90E0821BBC
:10027000930B541710F0CF96089501970895FC0141
:10028000918D828D981761F0A28DAE0FBF2FB11D99
:100290005D968C91928D9F5F9F73928F90E00895F1
:1002A0008FEF9FEF0895FC01918D828D981731F0AB
:1002B000828DE80FF11D858D90E008958FEF9FEFFF
:1002C0000895FC01918D228D892F90E0805C9F4FD5
:1002D000821B91098F739927089587E392E00E940A
:1002E000610121E0892B09F420E0822F089580E04C
:1002F00090E0892B29F00E946D0181110C9400007F
:100300000895FC01A48DA80FB92FB11DA35ABF4FAA
:100310002C91848D90E001968F739927848FA68904
:10032000B7892C93A089B1898C91837080648C9358
:10033000938D848D981306C00288F389E02D808107
:100340008F7D80830895EF92FF920F931F93CF9339
:10035000DF93EC0181E0888F9B8D8C8D98131AC000
:10036000E889F989808185FF15C09FB7F894EE89E7
:10037000FF896083E889F989808183708064808344
:100380009FBF81E090E0DF91CF911F910F91FF908F
:10039000EF900895F62E0B8D10E00F5F1F4F0F7337
:1003A0001127E02E8C8D8E110CC00FB607FCFACFF2
:1003B000E889F989808185FFF5CFCE010E9481010E
:1003C000F1CFEB8DEC0FFD2FF11DE35AFF4FF082C3
:1003D0009FB7F8940B8FEA89FB8980818062CFCF29
:1003E000CF93DF93EC01888D8823B9F0AA89BB896C
:1003F000E889F9898C9185FD03C0808186FD0DC057
:100400000FB607FCF7CF8C9185FFF2CF808185FF77
:10041000EDCFCE010E948101E9CFDF91CF91089508
:100420003FB7F8948091330190913401A091350148
:10043000B091360126B5A89B05C02F3F19F0019653
:10044000A11DB11D3FBFBA2FA92F982F8827BC012E
:10045000CD01620F711D811D911D42E0660F771F56
:10046000881F991F4A95D1F708958F929F92AF9256
:10047000BF92CF92DF92EF92FF924B015C010E94FC
:1004800010026B017C010E9410026C197D098E091B
:100490009F09683E734081059105A8F321E0821A07
:1004A0009108A108B10888EEC80E83E0D81EE11CAF
:1004B000F11C81149104A104B10429F7FF90EF907D
:1004C000DF90CF90BF90AF909F908F900895DC0108
:1004D00080E0615038F0ED91E827F0E0E859FF4FF7
:1004E0008491F7CF0895DC012C911196ED91FC9148
:1004F000F8948181822B81839281322F30959323CE
:10050000928387E090E00197F1F7818183238183D3
:1005100083E290E00197F1F790817894EFECF0E0BE
:100520003197F1F7922381E009F480E00895EF928A
:10053000FF920F931F93CF93DF937C0108E010E0AD
:10054000C0E0D1E0C7010E9473028111CD2BDD0F05
:1005500001501109B9F78C2FDF91CF911F910F91A5
:10056000FF90EF900895FC0190810180F281E02DD1
:10057000292F209560FF14C0F89482818223828302
:100580008181892B8183A3E2B0E01197F1F7828109
:10059000982B9283789487ED90E00197F1F7089576
:1005A000F8948281822382838181892B8183AFEFBA
:1005B000B0E01197F1F78281982B928378948FE0C5
:1005C00090E0EBCFDF92EF92FF920F931F93CF93C8
:1005D000DF93EC01D62EE42E08E010E0FF24F39424
:1005E00061E08D2D8F2109F460E0CE010E94B302FD
:1005F000FF0C01501109A1F7E11010C0F894E98136
:10060000FA8191818881809589238183E981FA81AA
:10061000928188818095892382837894DF91CF911C
:100620001F910F91FF90EF90DF900895EF92FF924E
:100630000F931F93CF93DF938C017B0140E065E51F
:100640000E94E202E70188E0E80EF11C699140E0B7
:10065000C8010E94E202CE15DF05C1F7DF91CF91FC
:100660001F910F91FF90EF900895FC019081018000
:10067000F281E02DF8948181292F209582238183B6
:1006800078943DE743E050E0315029F1DA011197C9
:10069000F1F780818923C1F3F894828182238283D8
:1006A0008181892B81837894ABE7B7E01197F1F7CB
:1006B000F894818182238183A3E1B1E01197F1F75E
:1006C0008081982381E009F080E07894E3E6F6E009
:1006D0003197F1F7089580E00895EF92FF920F931C
:1006E0001F93CF93DF937C018B01C6EDD3E08D8107
:1006F0009E810E943503B7018D819E810E94160361
:1007000040E06EEB8D819E810E94E2028D819E8190
:100710000E949702F80180838D819E810E9497023A
:10072000F80181838D819E810E949702F801828366
:100730008D819E810E949702F80183838D819E8125
:100740000E949702F80184838D819E810E94970206
:10075000F80185838D819E810E949702F80186832E
:100760008D819E810E949702F80187838D819E81F1
:100770000E949702F80180878D819E81DF91CF9141
:100780001F910F91FF90EF900C943503CF93DF935F
:10079000CDB7DEB729970FB6F894DEBF0FBECDBF39
:1007A000BE016F5F7F4F0E946D0368E0CE0101962E
:1007B0000E9467029985891306C08D818F33A9F045
:1007C00020F48F31A1F080E007C08F3521F08F3702
:1007D000D1F78CE001C08BE029960FB6F894DEBF0C
:1007E0000FBECDBFDF91CF9108958AE0F5CF89E0AC
:1007F000F3CFBF92CF92DF92EF92FF920F931F93AE
:10080000CF93DF93EC01B62EC72EED84EE2081F05E
:100810001B861D861C8680E02396EB2DFC2D9F01F8
:10082000285F3F4F999191932E173F07D9F707C043
:100830000E94350381110DC01B861D861C86DF9129
:10084000CF911F910F91FF90EF90DF90CF90BF90CD
:10085000089540E060EFCE010E94E202D12C01E059
:1008600011E0CE010E947302F82ECE010E947302A5
:1008700091E0F9120EC0813049F5113448F2EB864F
:10088000E11002C081E08D878B81882309F281E02D
:10089000C3CFED2DF0E0F8120FC08B851817A0F430
:1008A000DE01AE0FBF1F13968C91802379F4F12CDB
:1008B000193008F41C87E12EEC0FFD1F8381902F67
:1008C0009095892383830AC08113F1CFFE01ED0D3A
:1008D000F11D8381802B8383FF24F3946F2DCE0140
:1008E0000E94B3021F5F000F11F4D39401E087E070
:1008F0008D1508F0B6CFC1CFFC0101900020E9F7BB
:100900003197AF01481B590BBC0187E392E00C946F
:1009100003018F929F92AF92BF92CF92DF92EF929C
:10092000FF920F931F93CF93DF93CDB7DEB76197FD
:100930000FB6F894DEBF0FBECDBF8091DB03909160
:10094000DC030E94350340E06CEC8091DB03909166
:10095000DC030E94E2024091D60364E48091DB0351
:100960009091DC030E94E2028091D803882389F0F1
:100970008091D7038A3009F478C08B3009F47AC0AB
:10098000893009F07CC06EE570E080E090E00E9464
:100990003502E091DB03F091DC03138615861486A3
:1009A000128611861086178216821582148213828F
:1009B000BE01665F7F4F8091DB039091DC030E9454
:1009C000F903882329F067E0CE010A960E946702A6
:1009D000BE016F5F7F4FCE010A960E946D0368E0F3
:1009E000CE0101960E94670299858913D0C00981C2
:1009F0001A818A85823209F447C0883209F444C0DA
:100A0000803109F049C0F8848F812F2D281B330BCA
:100A1000B901072E000C880B990B0E946A094B0143
:100A20005C016F2D70E090E080E00E9468099B01FE
:100A3000AC01C501B4010E94C0086B017C01B80182
:100A400075956795072E000C880B990B0E946A0913
:100A500020E030E040E85EE30E9453089B01AC01D7
:100A6000C701B6010E94540860C06CEB70E080E0E2
:100A700090E08DCF67E771E080E090E088CF6EEE88
:100A800072E080E090E083CF8D818F3309F45EC007
:100A9000E0F58F3109F46AC0C701B6010E9432093E
:100AA0006093D4027093D5027F936F9382E191E0BB
:100AB0009F938F9386ED92E09F938F930E94690A94
:100AC00086ED92E00E947C048AE291E00E947C0420
:100AD0000F900F900F900F900F900F908091D40275
:100AE0009091D50261960FB6F894DEBF0FBECDBFD0
:100AF000DF91CF911F910F91FF90EF90DF90CF90FA
:100B0000BF90AF909F908F9008958F3589F08F3769
:100B100019F6B801110F880B990B0E946A0920E0A1
:100B200030E040E85DE30E94F6096B017C01B4CF40
:100B3000B80175956795072E000C880B990B0E94DC
:100B40006A0920E030E040E05EE3EDCFB801759542
:100B5000679575956795072E000C880B990B0E9479
:100B60006A0920E030E040E85EE3DDCFB80123E031
:100B7000759567952A95E1F7072E000C880B990B60
:100B80000E946A0920E030E040E05FE3CCCFC12C56
:100B9000D12C8EEFE82E82ECF82E7ECF1F920F9292
:100BA0000FB60F9211242F933F934F935F936F9340
:100BB0007F938F939F93AF93BF93EF93FF9387E3BD
:100BC00092E00E948101FF91EF91BF91AF919F91BF
:100BD0008F917F916F915F914F913F912F910F90E6
:100BE0000FBE0F901F9018951F920F920FB60F9285
:100BF00011242F938F939F93EF93FF93E0914702DC
:100C0000F09148028081E0914D02F0914E0282FD08
:100C10001BC09081809150028F5F8F732091510291
:100C2000821741F0E0915002F0E0E95CFD4F958FB2
:100C300080935002FF91EF919F918F912F910F9090
:100C40000FBE0F901F9018958081F4CF1F920F92C6
:100C50000FB60F9211242F933F938F939F93AF93CF
:100C6000BF9380912F0190913001A0913101B091FB
:100C7000320130912E0123E0230F2D3758F50196D4
:100C8000A11DB11D20932E0180932F01909330015F
:100C9000A0933101B09332018091330190913401DE
:100CA000A0913501B09136010196A11DB11D80932F
:100CB000330190933401A0933501B0933601BF9175
:100CC000AF919F918F913F912F910F900FBE0F90F9
:100CD0001F90189526E8230F0296A11DB11DD2CFB3
:100CE0000F931F93CF93DF93CDB7DEB761970FB606
:100CF000F894DEBF0FBECDBF10923A0210923902B7
:100D000088EE93E0A0E0B0E080933B0290933C0239
:100D1000A0933D02B0933E0284E091E090933802AC
:100D20008093370285EC90E09093440280934302D5
:100D300084EC90E0909346028093450280EC90E032
:100D4000909348028093470281EC90E090934A028E
:100D50008093490282EC90E090934C0280934B0286
:100D600086EC90E090934E0280934D0210925002D8
:100D7000109251021092520210925302E091DB0342
:100D8000F091DC0313861586148612861186108670
:100D9000178216821582148213821092DA0301E000
:100DA000BE01665F7F4F8091DB039091DC030E9460
:100DB000F903882309F45BC067E0CE010A960E941C
:100DC000670299898913ECCF8091D603811128C0DD
:100DD0008091DB039091DC030E943503BE01665FC6
:100DE0007F4F8091DB039091DC030E94160340E06B
:100DF00064EB8091DB039091DC030E94E20280911E
:100E0000DB039091DC030E947302182F8091DB03B7
:100E10009091DC030E943503111102C00093D603A8
:100E2000BE016F5F7F4FCE010A960E946D03109145
:100E3000D7038A85803109F488C0CE010A960E94C2
:100E4000C603811750F48091D7038093D703809114
:100E5000DA038F5F8093DA03A3CF8A85803111F4A0
:100E600089E0F3CFCE010A960E94C603EECF4DE98A
:100E700051E0FA01649189E891E0FC012491222378
:100E8000C9F030E0220F331FF901EE58FE4FA59153
:100E9000B491F901E859FE4F059114917FB7F89488
:100EA0003C91262F209532233C93F8013081232357
:100EB00020837FBFFA0144914093E903FC018491B0
:100EC000E82FF0E0EE0FFF1FE458FE4F859194915C
:100ED0009093EB038093EA031092F4031092F603CD
:100EE0001092F5031092F3031092F2031092F103A3
:100EF0001092F0031092EF031092EE031092ED03A4
:100F00001092EC0382E091E09093E8038093E70372
:100F100089EE93E09093DC038093DB031092DA0375
:100F20001092D60389E08093D70381E08093D803A1
:100F30008093D90361960FB6F894DEBF0FBECDBF84
:100F4000DF91CF911F910F9108951A3008F07BCF58
:100F500087CF789484B5826084BD84B5816084BD78
:100F600085B5826085BD85B5816085BD80916E0047
:100F7000816080936E001092810080918100826078
:100F800080938100809181008160809381008091B5
:100F900080008160809380008091B10084608093A4
:100FA000B1008091B00081608093B00080917A00A0
:100FB000846080937A0080917A00826080937A00C6
:100FC00080917A00816080937A0080917A008068B5
:100FD00080937A001092C100E0914702F09148029C
:100FE00082E08083E0914302F09144021082E0911C
:100FF0004502F09146028FEC808310924F02E091FF
:101000004B02F0914C0286E08083E0914902F0911E
:101010004A02808180618083E0914902F0914A0216
:10102000808188608083E0914902F0914A0280814A
:1010300080688083E0914902F0914A0280818F7D2F
:10104000808368EE73E080E090E00E943502C2E1A8
:10105000D1E007E311E080E0E82E80E0F82E0E9466
:1010600089040E9489049F938F93DF93CF931F93EA
:101070000F930E94690A87E391E00E947C048AE250
:1010800091E00E947C040F900F900F900F900F90B2
:101090000F90E114F10419F30E946D018823F9F215
:1010A0000E940000DCCF5058BB27AA270E946B0883
:1010B0000C94BC090E94AE0938F00E94B50920F0DA
:1010C00039F49F3F19F426F40C94AB090EF4E09523
:1010D000E7FB0C94A509E92F0E94CD0958F3BA1734
:1010E000620773078407950720F079F4A6F50C943E
:1010F000EF090EF4E0950B2EBA2FA02D0B01B901CC
:1011000090010C01CA01A0011124FF27591B99F07D
:10111000593F50F4503E68F11A16F040A22F232F89
:10112000342F4427585FF3CF469537952795A795D9
:10113000F0405395C9F77EF41F16BA0B620B730B80
:10114000840BBAF09150A1F0FF0FBB1F661F771FF1
:10115000881FC2F70EC0BA0F621F731F841F48F4A6
:10116000879577956795B795F7959E3F08F0B0CF2F
:101170009395880F08F09927EE0F97958795089516
:101180000E94D4080C94BC090E94B50958F00E9432
:10119000AE0940F029F45F3F29F00C94A5095111E4
:1011A0000C94F0090C94AB090E94CD0968F39923C3
:1011B000B1F3552391F3951B550BBB27AA27621753
:1011C0007307840738F09F5F5F4F220F331F441F60
:1011D000AA1FA9F335D00E2E3AF0E0E832D0915094
:1011E0005040E695001CCAF72BD0FE2F29D0660F81
:1011F000771F881FBB1F261737074807AB07B0E8C4
:1012000009F0BB0B802DBF01FF2793585F4F3AF0C9
:101210009E3F510578F00C94A5090C94F0095F3FAE
:10122000E4F3983ED4F3869577956795B795F7954F
:101230009F5FC9F7880F911D9695879597F9089537
:10124000E1E0660F771F881FBB1F621773078407D3
:10125000BA0720F0621B730B840BBA0BEE1F88F7E2
:10126000E09508950E9439096894B1110C94F00931
:1012700008950E94D50988F09F5798F0B92F9927B3
:10128000B751B0F0E1F0660F771F881F991F1AF071
:10129000BA95C9F714C0B13091F00E94EF09B1E0DE
:1012A00008950C94EF09672F782F8827B85F39F0DD
:1012B000B93FCCF3869577956795B395D9F73EF40A
:1012C00090958095709561957F4F8F4F9F4F0895B2
:1012D000E89409C097FB3EF49095809570956195D0
:1012E0007F4F8F4F9F4F9923A9F0F92F96E9BB2786
:1012F0009395F695879577956795B795F111F8CF02
:10130000FAF4BB0F11F460FF1BC06F5F7F4F8F4F6C
:101310009F4F16C0882311F096E911C0772321F062
:101320009EE8872F762F05C0662371F096E8862FFA
:1013300070E060E02AF09A95660F771F881FDAF751
:10134000880F9695879597F9089597F99F6780E894
:1013500070E060E008959FEF80EC089500240A9407
:101360001616170618060906089500240A94121680
:101370001306140605060895092E0394000C11F4B3
:10138000882352F0BB0F40F4BF2B11F460FF04C060
:101390006F5F7F4F8F4F9F4F089557FD9058440FB9
:1013A000551F59F05F3F71F04795880F97FB991FC4
:1013B00061F09F3F79F08795089512161306140681
:1013C000551FF2CF4695F1DF08C01616170618060E
:1013D000991FF1CF86957105610508940895E894E9
:1013E000BB2766277727CB0197F908950E94090A42
:1013F0000C94BC090E94AE0938F00E94B50920F097
:10140000952311F00C94A5090C94AB0911240C94AC
:10141000F0090E94CD0970F3959FC1F3950F50E03C
:10142000551F629FF001729FBB27F00DB11D639F96
:10143000AA27F00DB11DAA1F649F6627B00DA11D3C
:10144000661F829F2227B00DA11D621F739FB00DE2
:10145000A11D621F839FA00D611D221F749F332752
:10146000A00D611D231F849F600D211D822F762FEB
:101470006A2F11249F5750409AF0F1F088234AF0C8
:10148000EE0FFF1FBB1F661F771F881F9150504034
:10149000A9F79E3F510580F00C94A5090C94F00922
:1014A0005F3FE4F3983ED4F3869577956795B795BB
:1014B000F795E7959F5FC1F7FE2B880F911D9695D5
:1014C000879597F90895EE0FFF1F0590F491E02D91
:1014D0000994AEE0B0E0EFE6FAE00C94180D0D8947
:1014E0001E8986E08C831A8309838FEF9FE79E8392
:1014F0008D83AE01475E5F4F6F89788DCE01019677
:101500000E948C0A2F813885020F131FF801108268
:101510002E96E4E00C94340DABE0B0E0E2E9FAE0A2
:101520000C940A0D7C013B018A01FC011782168292
:10153000838181FFC8C1CE0101965C01F7019381CF
:10154000F30193FD859193FF81913F01882309F475
:1015500053C1853239F493FD859193FF81913F0109
:10156000853229F4B70190E00E947C0CE7CF912CE2
:10157000212C312CFFE1F31538F08B3211F190F46E
:10158000803209F1833229F137FC3CC020ED280F6D
:101590002A3050F536FE20C08AE0989E200D112496
:1015A000922E06C08D3291F0803371F7689430F836
:1015B000F30193FD859193FF81913F018111DACF72
:1015C00021C0689431F8689432F8F2CF689433F807
:1015D000EFCF689434F8ECCFEAE02E9E200D112472
:1015E000222E689435F8E4CF8E3229F436FC04C1FB
:1015F000689436F8DDCF8C3619F4689437F8D8CF74
:101600008836B1F2982F9F7D95549330E0F0833661
:10161000A1F18337C1F1833509F063C02801F2E0FD
:101620004F0E511CF801C080D180692D70E036FC4E
:1016300002C06FEF7FEFC6010E94660C4C016894F8
:1016400037F882010AC00C5F1F4FFFE3F98388243B
:101650008394912C6501E89437F833FE2DC0522C09
:101660008114910471F5552009F468CFB70180E227
:1016700090E00E947C0C5A94F6CFF8018081898317
:101680000E5F1F4FE4CF2801F2E04F0E511CF8010E
:10169000C080D180692D70E036FC02C06FEF7FEF13
:1016A000C6010E94710C4C018201D5CFB70180E2C6
:1016B00090E00E947C0C2A942814190409F0B0F7D9
:1016C000CECFF60137FC859137FE81916F01B701CE
:1016D00090E00E947C0C51105A94F1E08F1A91080E
:1016E000BFCF843619F0893609F077C0F80137FE8C
:1016F0006BC060817181828193810C5F1F4FF32DDC
:10170000FF763F2E97FF09C0909580957095619563
:101710007F4F8F4F9F4F689437F82AE030E0A50144
:101720000E94AC0CC82ECA188C2C432C36FE0CC060
:10173000E89440F8C91440F434FE05C032FC03C0FC
:10174000F32DFE7E4F2E892C44FE95C0FE01EC0D3C
:10175000F11D8081803309F087C0242D297E422E1F
:10176000842D8870582E43FC95C040FE8FC09C2C61
:10177000821418F42C0C922C981844FE91C0B701D6
:1017800080E390E00E947C0C42FE09C088E790E074
:1017900041FE02C088E590E0B7010E947C0CC914AC
:1017A00008F48AC0CA94D12C9FEFC91AD90ACA0C6E
:1017B000DB1CF60182916F01B70190E00E947C0C66
:1017C000AC14BD04B1F74FCF60817181072E000CBE
:1017D000880B990B0E5F1F4F92CFD32CE894D4F84F
:1017E0002AE030E0853739F1232D297FD22E8F363C
:1017F00001F148F48835A9F0F701868197812B968D
:10180000E2E10C94260D803749F08837A9F7D4FE21
:1018100002C06894D2F820E130E00DC06894D4F89A
:10182000F6CF34FE03C0822F8660D82E20E132E04E
:1018300002C028E030E0F801D7FE0FC0608171815E
:10184000828193810C5F1F4FA5010E94AC0CC82EB2
:10185000CA183D2CE89437F867CF6081718190E019
:1018600080E00E5F1F4FF0CF42FC02C0839478CF20
:101870008394839475CF842D867809F471CFF6CF45
:10188000B70180E290E00E947C0C83948214C0F344
:10189000512C73CF522C5818821408F46ECFF8CF05
:1018A000842D867809F47BCF8BE241FE80E247FCF1
:1018B0008DE2B70190E071CFB70180E390E00E9424
:1018C0007C0C9A946CCF8FEF9FEF99CFFC01059021
:1018D000615070400110D8F7809590958E0F9F1F32
:1018E0000895FC016150704001900110D8F7809577
:1018F00090958E0F9F1F08950F931F93CF93DF93A3
:10190000182F092FEB018B8181FD09C01FEF0FEF0D
:10191000812F902FDF91CF911F910F91089582FF1A
:1019200014C02E813F818C819D81281739073CF49A
:10193000E881F981CF0101969983888310838E8194
:101940009F8101969F838E83E3CFE885F985812F60
:101950000995892BA1F3DACFFA01AA27283051F192
:10196000203181F1E8946F936E7F6E5F7F4F8F4FD0
:101970009F4FAF4FB1E03ED0B4E03CD0670F781F2F
:10198000891F9A1FA11D680F791F8A1F911DA11D14
:101990006A0F711D811D911DA11D20D009F468944D
:1019A0003F912AE0269F11243019305D3193DEF6F5
:1019B000CF010895462F4770405D4193B3E00FD0AB
:1019C000C9F7F6CF462F4F70405D4A3318F0495D96
:1019D00031FD4052419302D0A9F7EACFB4E0A69579
:1019E0009795879577956795BA95C9F7009761059B
:1019F000710508959B01AC010A2E069457954795F1
:101A000037952795BA95C9F7620F731F841F951FE5
:101A1000A01D08952F923F924F925F926F927F92F6
:101A20008F929F92AF92BF92CF92DF92EF92FF92EE
:101A30000F931F93CF93DF93CDB7DEB7CA1BDB0B9A
:101A40000FB6F894DEBF0FBECDBF09942A8839883F
:101A500048885F846E847D848C849B84AA84B98446
:101A6000C884DF80EE80FD800C811B81AA81B98152
:101A7000CE0FD11D0FB6F894DEBF0FBECDBFED0166
:061A80000895F894FFCF69
:101A860000000000A30103013001F00161013F01E4
:101A960053017B2253454E534F5254454D505641A8
:0E1AA6004C5545223A2025647D000D0A0000B3
:00000001FF
